:100000000C9423010C9435010C9435010C943501AA
:100010000C9435010C9435010C9435010C94350188
:100020000C9435010C9435010C9435010C94350178
:100030000C9435010C9435010C9435010C94350168
:100040000C9435010C9435010C9435010C94350158
:100050000C943501000000000081811881810007A7
:10006000000700147F147F14242A7F2A1223130808
:10007000646236495522500005030000001C2241ED
:10008000000041221C0014083E081408083E08081D
:1000900000503000000808080808006060000020D8
:1000A000100804023E5149453E00427F4000426133
:1000B0005149462141454B311814127F10274545BF
:1000C00045393C4A494930017109050336494949D6
:1000D00036064949291E0036360000005636000013
:1000E00008142241001414141414004122140802AC
:1000F00001510906324979413E7E1111117E7F4935
:100100004949363E414141227F4141221C7F4949B4
:1001100049417F090909013E4149497A7F08080898
:100120007F00417F41002040413F017F0814224170
:100130007F404040407F020C027F7F0408107F3EDA
:100140004141413E7F090909063E4151215E7F0937
:10015000192946464949493101017F01013F404083
:10016000403F1F2040201F3F4038403F6314081489
:100170006307087008076151494543007F4141000A
:1001800002040810200041417F00040201020440E3
:1001900040404040000102040020545454787F48FD
:1001A0004444383844444420384444487F38545404
:1001B0005418087E0901020C5252523E7F08040472
:1001C0007800447D40002040443D007F10284400DA
:1001D00000417F40007C041804787C0804047838CF
:1001E000444444387C14141408081414147C7C0807
:1001F0000404084854545420043F4440203C4040E8
:10020000207C1C2040201C3C4030403C44281028CE
:10021000440C5050503C4464544C44000836410057
:1002200000007F0000004136080010080810080098
:10023000000000000500960100C811010A3A0501FE
:100240000036A000C82911241FBECFE5D4E0DEBFD0
:10025000CDBF20E0A0E6B0E001C01D92A436B207F9
:10026000E1F70E94CC020C94FD020C940000C09AAD
:10027000B89A2FEF83EC99E0215080409040E1F74D
:1002800000C00000C0982FEF83EC99E0215080401F
:100290009040E1F700C00000C09A0895BF9ABD9A4F
:1002A000B99A6E9A6C9A709A0895DC01ED91FC915E
:1002B000119721E030E0A901028002C0440F551FD0
:1002C0000A94E2F75081452B4083ED91FC91028026
:1002D00002C0220F331F0A94E2F78181282B218369
:1002E0000895DC011296ED91FC91139721E030E026
:1002F000A901028002C0440F551F0A94E2F7508101
:10030000452B40831296ED91FC911397028002C019
:10031000220F331F0A94E2F78181282B218308954D
:10032000DC01ED91FC9121E030E0028002C0220F5F
:10033000331F0A94E2F72095318123232183C1984A
:100340006FB9779BFECFDC01ED91FC9181E090E0ED
:10035000028002C0880F991F0A94E2F79181892BCD
:1003600081838FB10895DC01ED91FC9121E030E0B3
:10037000028002C0220F331F0A94E2F720953181D8
:1003800023232183C19A6FB9779BFECFDC01ED91C6
:10039000FC9181E090E0028002C0880F991F0A94CE
:1003A000E2F79181892B81838FB10895DC01ED9172
:1003B000FC9121E030E0028002C0220F331F0A943A
:1003C000E2F72095318123232183C19A7FB9779B5E
:1003D000FECF6FB9779BFECFDC01ED91FC9181E000
:1003E00090E0028002C0880F991F0A94E2F7918181
:1003F000892B81838FB10895EF92FF920F931F9302
:10040000CF93DF93461738F1413A28F5021718F1D8
:10041000023808F5F22E142FE62EEC016AE20E9453
:1004200090016E2D70E0CE010E94D601612F70E028
:10043000CE010E94D6016BE2CE010E9490016F2D89
:1004400070E0CE010E94D601602F70E0CE010E94C4
:10045000D60180E001C081E0DF91CF911F910F9123
:10046000FF90EF900895CF92DF92EF92FF920F935B
:100470001F93CF93DF938C017B016A016CE20E9492
:100480009001E601209731F0B701C8010E94D60122
:100490002197F8CFDF91CF911F910F91FF90EF90AF
:1004A000DF90CF900895EF92FF920F93CF93DF9359
:1004B000EC017B0101E820E040EA60E00E94FC01E1
:1004C00042EC51E5B701CE01DF91CF910F91FF9042
:1004D000EF900C943302882341F0EFE9FFE031976D
:1004E000F1F700C000008150F6CF08959F92AF92BF
:1004F000BF92CF92DF92EF92FF920F931F93CF9311
:10050000DF937C01EB012196FB011491112321F172
:10051000FE019490319604915E01F3E0AF0EB11CA0
:10052000FE0132966491C7010E949001C92D6501B8
:10053000CC2351F0F6016491C7010E94B301C15070
:10054000C60101966C01F4CFE501C90DD11D802FC4
:100550000E946B021150DACFDF91CF911F910F9162
:10056000FF90EF90DF90CF90BF90AF909F90089555
:10057000CF93DF93EC010E944E01CE010E94550102
:100580000E943701CE010E94710164E372E0CE0146
:10059000DF91CF910C947602CF93DF93CDB7DEB786
:1005A0002A970FB6F894DEBF0FBECDBF87B38887FA
:1005B00088B3898783E08A8787B38D8388B38E83E6
:1005C00082E08F83CE0108969A83898303979C8368
:1005D0008B8304970E94B80260E070E0CE01019620
:1005E0000E94530280E090E02A960FB6F894DEBF96
:0E05F0000FBECDBFDF91CF910895F894FFCFDD
:00000001FF
