:100000000C9423010C9440010C9440010C94400189
:100010000C9440010C9440010C9440010C9440015C
:100020000C9440010C9440010C9440010C9440014C
:100030000C9440010C9440010C9440010C9440013C
:100040000C9440010C9440010C9440010C9440012C
:100050000C9440010000000000818118818100079C
:10006000000700147F147F14242A7F2A1223130808
:10007000646236495522500005030000001C2241ED
:10008000000041221C0014083E081408083E08081D
:1000900000503000000808080808006060000020D8
:1000A000100804023E5149453E00427F4000426133
:1000B0005149462141454B311814127F10274545BF
:1000C00045393C4A494930017109050336494949D6
:1000D00036064949291E0036360000005636000013
:1000E00008142241001414141414004122140802AC
:1000F00001510906324979413E7E1111117E7F4935
:100100004949363E414141227F4141221C7F4949B4
:1001100049417F090909013E4149497A7F08080898
:100120007F00417F41002040413F017F0814224170
:100130007F404040407F020C027F7F0408107F3EDA
:100140004141413E7F090909063E4151215E7F0937
:10015000192946464949493101017F01013F404083
:10016000403F1F2040201F3F4038403F6314081489
:100170006307087008076151494543007F4141000A
:1001800002040810200041417F00040201020440E3
:1001900040404040000102040020545454787F48FD
:1001A0004444383844444420384444487F38545404
:1001B0005418087E0901020C5252523E7F08040472
:1001C0007800447D40002040443D007F10284400DA
:1001D00000417F40007C041804787C0804047838CF
:1001E000444444387C14141408081414147C7C0807
:1001F0000404084854545420043F4440203C4040E8
:10020000207C1C2040201C3C4030403C44281028CE
:10021000440C5050503C4464544C44000836410057
:1002200000007F0000004136080010080810080098
:10023000000000000500960100C811010A3A0501FE
:100240000036A000C82911241FBECFE5D4E0DEBFD0
:10025000CDBF10E0A0E6B0E0E0E3F9E002C0059019
:100260000D92A83AB107D9F720E0A8EAB0E001C0A2
:100270001D92AC3AB207E1F70E947F040C949604F9
:100280000C940000C09AB89A2FEF83EC99E02150AB
:1002900080409040E1F700C00000C0982FEF83EC51
:1002A00099E0215080409040E1F700C00000C09AE2
:1002B000089587B3826B87BB8DB180658DB9709AC5
:1002C0000895C498C1988FB9779BFECFC49A8FB117
:1002D0000895C498C19A8FB9779BFECFC49A8FB105
:1002E0000895C498C19A9FB9779BFECF8FB9779B29
:1002F000FECFC49A8FB10895CF93DF938238C0F4B4
:100300006238B0F4C62FD82F80E30E94610180E0EC
:100310000E9469018D2F0E94690180E00E9469019D
:100320008C2F0E94690182E10E94610181E001C07D
:1003300080E0DF91CF9108950F931F93CF93DF93C8
:10034000681710F1613A00F52417F0F02238E0F454
:10035000C22F142FD62F082F8AE20E946101802F0E
:1003600090E00E9471018D2F90E00E9471018BE25C
:100370000E946101812F90E00E9471018C2F90E01A
:100380000E94710180E001C081E0DF91CF911F9157
:100390000F910895EF92FF920F931F93CF93DF93E6
:1003A0008C017B018CE20E946101E701209729F01A
:1003B000C8010E9471012197F9CFDF91CF911F9160
:1003C0000F91FF90EF900895CF93DF93EA01262FCE
:1003D000462F682F0E949C0161E070E0CE01DF9102
:1003E000CF910C94CA01AF92BF92CF92DF92EF925D
:1003F000FF920F931F93CF93DF93EB0141155105AC
:1004000089F535E0E32E082E000C990B8097E89EC5
:100410006001E99ED00C1124EA948FEFE81609F4EC
:100420005BC0F601EE0DF11DEC5AFF4FE49148E080
:10043000F42E0E2F10E0FA948FEFF81669F3C8012E
:100440000F2C02C0959587950A94E2F780FFF3CFB1
:100450006091AA006F0D8091A800AE018E0D0E94E0
:10046000E401E9CF4038510509F03CC015E0082E01
:10047000000C990B8097189F6001199FD00C1124D4
:10048000115050F1F601E10FF11DEC5AFF4FE491CC
:1004900008E0EE2EF12C015098F3C701002E02C0A7
:1004A000959587950A94E2F780FFF5CF6091AA00B1
:1004B000B02EBB0C6B0D8091A800AE01810F0E9485
:1004C000E4016091AA006B0D6F5F8091A800AE01FE
:1004D000810F0E94E401DFCF8091A8009091A900D4
:1004E00005965DC04138510509F05DC095E0F92ED3
:1004F000082E000C990B8097F89E6001F99ED00C95
:100500001124FA948FEFF81609F444C0F601EF0DA8
:10051000F11DEC5AFF4FE491AF2CAA0C28E0B22E4B
:100520000E2F10E0BA948FEFB81659F3C8010B2CB8
:1005300002C0959587950A94E2F780FFF3CF60910A
:10054000AA00EB2CEE0C6E0D8091A800AE018A0D76
:100550000E94E4016091AA006E0D6F5F8091A80077
:10056000AE018A0D0E94E4016091AA006E0D809197
:10057000A8008F5FAE018A0D0E94E4016091AA007D
:100580006E0D6F5F8091A8008F5FAE018A0D0E9493
:10059000E401C8CF8091A8009091A9000B96909398
:1005A000A9008093A80080E0DF91CF911F910F9167
:1005B000FF90EF90DF90CF90BF90AF900895823A78
:1005C00050F06338A0F470E07093AB006093AA0021
:1005D00082E090E006C070E07093AB006093AA00E8
:1005E00090E09093A9008093A80080E0089581E0B6
:1005F0000895823A68F0461768F070E07093AB0097
:100600006093AA0082E090E09093A9008093A800F4
:1006100080E0089581E00895BF92CF92DF92EF923B
:10062000FF920F931F93CF93DF936B018A019A017F
:1006300044E0369527954A95E1F7C8E0C20FD2E825
:10064000DC1B7C01802F8F70B82EF70180818823FE
:10065000A9F06091AA006C0F8091A8008B5F9801AF
:100660004D2F8B0D0E94F9028111EFCFA801B60129
:10067000F70181917F010E94F301E7CFDF91CF91D4
:100680001F910F91FF90EF90DF90CF90BF90089552
:100690006F927F928F929F92AF92BF92CF92DF9292
:1006A000EF92FF920F931F93CF93DF93E82E862E46
:1006B000F42E922E262F30E0281B3109892D90E050
:1006C000841B910937FF06C03195219531097724A4
:1006D0007A9402C07724739497FF06C09195819510
:1006E000910966246A9402C0662463946C01CC0C60
:1006F000DD1C5901AA0CBB1C821793079CF4E60170
:10070000C21BD30BA8016F2D8E2D0E94E401E814AB
:10071000D9F0E70CD7FD03C0F60CCA19DB09CC0DE4
:10072000DD1DF0CFEC01CA19DB09A8016F2D8E2D5C
:100730000E94E401F91441F0F60C1C161D069CF30E
:10074000E70CCC0DDD1DEFCF81E0DF91CF911F9144
:100750000F91FF90EF90DF90CF90BF90AF909F9060
:100760008F907F906F9008950F931F93CF93DF9397
:10077000D82F8901C82F861708F4C62F242F6C2F75
:100780008D2F0E949C016C2F70E06D1B7109C801B8
:10079000DF91CF911F910F910C94CA010F931F937A
:1007A000CF93DF93D62F8901C62F641708F4C42F87
:1007B0002C2F4D2F682F0E949C016C2F70E06D1B19
:1007C0007109C801DF91CF911F910F910C94CA015B
:1007D000EF92FF920F931F93CF93DF93E82ED62FC4
:1007E000F42EC22F681710F4E62ED82FCF1518F468
:1007F0008F2DFC2EC82F2C2F4F2D6D2F8E2D0E944C
:100800009C018D2F90E08E19910901962C2F30E0DC
:100810002F1931092F5F3F4F829FB001839F700DC9
:10082000929F700D1124C801DF91CF911F910F91FC
:10083000FF90EF900C94CA01CF93DF93EC0121E875
:1008400040E060EA80E00E949C0162EC71E5CE012C
:10085000DF91CF910C94CA0189E20C946101882345
:1008600041F0EFE9FFE03197F1F700C0000081505F
:10087000F6CF0895BF92CF92DF92EF92FF920F933F
:100880001F93CF93DF93EC012196FC011491112368
:1008900011F1FE01B490319604917E01F3E0EF0E68
:1008A000F11CFE01329684910E946101CB2D6701FB
:1008B000CC2349F0F60184910E946901C150C60120
:1008C00001966C01F5CFE701CB0DD11D802F0E9461
:1008D0002F041150DCCFDF91CF911F910F91FF902A
:1008E000EF90DF90CF90BF900895BA9AC29A0E947D
:1008F00059010E94420184E392E00C943A040E9460
:10090000750480E090E00E941C0462E082E00E9496
:10091000DF0240E050E06FEF7FEF80E690E00E9462
:100920000C030E942C0480E090E00895F894FFCF1F
:1009300044617465642030382F31342F30362E20D6
:100940004F6E6520616D706C6966696572207468B0
:1009500061742074686520324E3534313620504E33
:1009600050207472616E736973746F72732077654F
:080970007265204E504E00009C
:00000001FF
