:100000000C9423010C9440010C9440010C94400189
:100010000C9440010C9440010C9440010C9440015C
:100020000C9440010C9440010C9440010C9440014C
:100030000C9440010C9440010C9440010C9440013C
:100040000C9440010C9440010C9440010C9440012C
:100050000C9440010000000000818118818100079C
:10006000000700147F147F14242A7F2A1223130808
:10007000646236495522500005030000001C2241ED
:10008000000041221C0014083E081408083E08081D
:1000900000503000000808080808006060000020D8
:1000A000100804023E5149453E00427F4000426133
:1000B0005149462141454B311814127F10274545BF
:1000C00045393C4A494930017109050336494949D6
:1000D00036064949291E0036360000005636000013
:1000E00008142241001414141414004122140802AC
:1000F00001510906324979413E7E1111117E7F4935
:100100004949363E414141227F4141221C7F4949B4
:1001100049417F090909013E4149497A7F08080898
:100120007F00417F41002040413F017F0814224170
:100130007F404040407F020C027F7F0408107F3EDA
:100140004141413E7F090909063E4151215E7F0937
:10015000192946464949493101017F01013F404083
:10016000403F1F2040201F3F4038403F6314081489
:100170006307087008076151494543007F4141000A
:1001800002040810200041417F00040201020440E3
:1001900040404040000102040020545454787F48FD
:1001A0004444383844444420384444487F38545404
:1001B0005418087E0901020C5252523E7F08040472
:1001C0007800447D40002040443D007F10284400DA
:1001D00000417F40007C041804787C0804047838CF
:1001E000444444387C14141408081414147C7C0807
:1001F0000404084854545420043F4440203C4040E8
:10020000207C1C2040201C3C4030403C44281028CE
:10021000440C5050503C4464544C44000836410057
:1002200000007F0000004136080010080810080098
:10023000000000000500960100C811010A3A0501FE
:100240000036A000C82911241FBECFE5D4E0DEBFD0
:10025000CDBF12E0A0E6B0E0EEE3FBE002C0059007
:100260000D92A834B107D9F722E0A8E4B2E001C0AA
:100270001D92AC34B207E1F70E9455050C949D0520
:100280000C940000C09AB89A2FEF83EC99E02150AB
:1002900080409040E1F700C00000C0982FEF83EC51
:1002A00099E0215080409040E1F700C00000C09AE2
:1002B0000895BF9ABD9AB99A6E9A6C9A709A0895E9
:1002C000DC01ED91FC91119721E030E0A901028061
:1002D00002C0440F551F0A94E2F75081452B40831A
:1002E000ED91FC91028002C0220F331F0A94E2F7C5
:1002F0008181282B21830895DC011296ED91FC91D8
:10030000139721E030E0A901028002C0440F551F7D
:100310000A94E2F75081452B40831296ED91FC91AF
:100320001397028002C0220F331F0A94E2F78181E3
:10033000282B21830895DC01ED91FC9121E030E030
:10034000028002C0220F331F0A94E2F72095318108
:1003500023232183C1986FB9779BFECFDC01ED91F8
:10036000FC9181E090E0028002C0880F991F0A94FE
:10037000E2F79181892B81838FB10895DC01ED91A2
:10038000FC9121E030E0028002C0220F331F0A946A
:10039000E2F72095318123232183C19A6FB9779B9E
:1003A000FECFDC01ED91FC9181E090E0028002C083
:1003B000880F991F0A94E2F79181892B81838FB16D
:1003C0000895DC01ED91FC9121E030E0028002C053
:1003D000220F331F0A94E2F72095318123232183D2
:1003E000C19A7FB9779BFECF6FB9779BFECFDC01B7
:1003F000ED91FC9181E090E0028002C0880F991F8E
:100400000A94E2F79181892B81838FB10895EF924D
:10041000FF920F931F93CF93DF93461738F1413A22
:1004200028F5021718F1023808F5F22E142FE62EDF
:10043000EC016AE20E949B016E2D70E0CE010E94E9
:10044000E101612F70E0CE010E94E1016BE2CE017B
:100450000E949B016F2D70E0CE010E94E101602F90
:1004600070E0CE010E94E10180E001C081E0DF91F7
:10047000CF911F910F91FF90EF900895CF92DF924F
:10048000EF92FF920F931F93CF93DF938C017B0129
:100490006A016CE20E949B01E601209731F0B701EE
:1004A000C8010E94E1012197F8CFDF91CF911F9100
:1004B0000F91FF90EF90DF90CF900895EF92FF9211
:1004C0000F93CF93DF93EC017901042F242F462F54
:1004D0000E94070241E050E0B701CE01DF91CF91C9
:1004E0000F91FF90EF900C943E02EF92FF920F93CA
:1004F000CF93DF93EC017B0101E820E040EA60E06C
:100500000E94070242EC51E5B701CE01DF91CF9185
:100510000F91FF90EF900C943E0269E20C949B01C6
:100520008F929F92AF92BF92CF92DF92EF92FF9203
:100530000F931F93CF93DF93EC018A0121153105AF
:1005400099F545E0C42E062E000C770B6052710918
:10055000C69E5001C79EB00C1124CA948FEFC816D6
:1005600009F465C0F501EC0DF11DEC5AFF4FE49163
:1005700058E0D52EEE2EF12CDA948FEFD81669F3D1
:10058000C7010D2C02C0959587950A94E2F780FF6C
:10059000F3CF40914A024D0D609148026C0D9801D5
:1005A000CE010E945E02E8CF2038310509F045C037
:1005B00025E0F22E062E000C770B60527109F69E94
:1005C0005001F79EB00C1124FA948FEFF81679F1D0
:1005D000F501EF0DF11DEC5AFF4FE49138E0E32EE9
:1005E000CE2ED12CEA948FEFE81671F3C6010E2CB3
:1005F00002C0959587950A94E2F780FFF3CF40916A
:100600004A029E2C990C490D609148026F0D980189
:10061000CE010E945E0240914A02490D4F5F6091F7
:1006200048026F0D9801CE010E945E02DBCF8091DF
:10063000480290914902059662C02138310509F0BF
:1006400062C085E0D82E062E000C770B605271092F
:10065000D69E5001D79EB00C1124DA948FEFD81695
:1006600009F448C0F501ED0DF11DEC5AFF4FE4917E
:100670008D2C880C98E0992EEE2EF12C9A948FEF09
:10068000981659F3C701092C02C0959587950A94CD
:10069000E2F780FFF3CF40914A02C92CCC0C4C0DFD
:1006A00060914802680D9801CE010E945E0240915F
:1006B0004A024C0D4F5F60914802680D9801CE01CF
:1006C0000E945E0240914A024C0D609148026F5FA9
:1006D000680D9801CE010E945E0240914A024C0DC5
:1006E0004F5F609148026F5F680D9801CE010E94D4
:1006F0005E02C4CF80914802909149020B9690937C
:1007000049028093480280E0DF91CF911F910F91C1
:10071000FF90EF90DF90CF90BF90AF909F908F9021
:100720000895823A50F06338A0F470E070934B0261
:1007300060934A0282E090E006C070E070934B0242
:1007400060934A0290E0909349028093480280E0CF
:10075000089581E00895823A68F0461768F070E0E5
:1007600070934B0260934A0282E090E090934902BA
:100770008093480280E0089581E008959F92AF92AF
:10078000BF92CF92DF92EF92FF920F931F93CF937E
:10079000DF936C015A017901C90124E09695879590
:1007A0002A95E1F718E0180F02E8011BEB018E2DE6
:1007B0008F70982E88818823A1F060914A02610F82
:1007C000809148028B5F9701402F890D0E94AB03F7
:1007D0008111F0CF9701A5016991C6010E94900295
:1007E000E9CFDF91CF911F910F91FF90EF90DF90B4
:1007F000CF90BF90AF909F9008954F925F926F926D
:100800007F928F929F92AF92BF92CF92DF92EF92A0
:10081000FF920F931F93CF93DF936C01762E542E8C
:10082000122F402E842F90E0861B9109C02FD0E01C
:10083000C21BD10997FF05C09195819591090FEFD2
:1008400001C001E0D7FF06C0D195C195D10966244A
:100850006A9402C0662463945E01AA0CBB1C4C011E
:10086000880C991CC817D907DCF4E501C81BD90B03
:100870009701412F672DC6010E945E027514D1F0C9
:10088000700ED7FD03C0160DC819D909CA0DDB1D9E
:10089000EFCF160D1C161D061CF0700ECA0DDB1DC9
:1008A000C819D9099701412F672DC6010E945E0220
:1008B0001411EFCF81E0DF91CF911F910F91FF9045
:1008C000EF90DF90CF90BF90AF909F908F907F90F0
:1008D0006F905F904F900895CF92DF92EF92FF92CA
:1008E0000F931F93CF93DF937C01D62F6801C62F00
:1008F000641708F4C42F022F4C2F6D2FC7010E94DC
:1009000007024C2F50E04D1B5109B601C701DF9182
:10091000CF911F910F91FF90EF90DF90CF900C94AB
:100920003E02CF92DF92EF92FF920F931F93CF93ED
:10093000DF937C01D42F6801C42F421708F4C22F23
:100940000C2F2D2F462FC7010E9407024C2F50E07D
:100950004D1B5109B601C701DF91CF911F910F9136
:10096000FF90EF90DF90CF900C943E02BF92CF9219
:10097000DF92EF92FF920F931F93CF93DF936C015F
:10098000B62ED42F122FC02F461710F4B42ED62F08
:10099000C11718F4812F1C2FC82F0C2F212F4D2F7A
:1009A0006B2DC6010E9407022D2F30E02B19310953
:1009B0002F5F3F4F8C2F90E0811B91090196289F5C
:1009C000A001299F500D389F500D1124B701C60179
:1009D000DF91CF911F910F91FF90EF90DF90CF901B
:1009E000BF900C943E02882341F0EFE9FFE031977D
:1009F000F1F700C000008150F6CF08959F92AF92AA
:100A0000BF92CF92DF92EF92FF920F931F93CF93FB
:100A1000DF937C01EB012196FB011491112321F15D
:100A2000FE019490319604915E01F3E0AF0EB11C8B
:100A3000FE0132966491C7010E949B01C92D650198
:100A4000CC2351F0F6016491C7010E94BE01C15050
:100A5000C60101966C01F4CFE501C90DD11D802FAF
:100A60000E94F3041150DACFDF91CF911F910F91C3
:100A7000FF90EF90DF90CF90BF90AF909F90089540
:100A8000CF93DF93EC010E945901CE010E946001D7
:100A9000CE010E944201CE010E947C0164E372E01B
:100AA000CE01DF91CF910C94FE04CF93DF93CDB7AD
:100AB000DEB72A970FB6F894DEBF0FBECDBF87B35F
:100AC000888788B3898783E08A8787B38D8388B3D3
:100AD0008E8382E08F83CE0108969A838983039761
:100AE0009C838B8304970E94400560E070E0CE01F8
:100AF00001960E94750220E830E040E050EF62E489
:100B0000CE0101960E94900262E081E00E94910372
:100B100020E830E04FEF5FEF60E670E0CE01019635
:100B20000E94BE0380E090E02A960FB6F894DEBFE4
:0E0B30000FBECDBFDF91CF910895F894FFCF97
:100B3E0044617465642030382F31342F30362E20C6
:100B4E004F6E6520616D706C6966696572207468A0
:100B5E0061742074686520324E3534313620504E23
:100B6E0050207472616E736973746F72732074683F
:100B7E0061742068652070757263686173656420A6
:100B8E0077657265204E504E2E204920686176653D
:100B9E0020746573746564207468656D20616E647D
:100BAE0020766572696669656420746869732E20A3
:100BBE0054776F206F6620746865207472616E734F
:100BCE006973746F7273206172652073686F776ECC
:100BDE0020696E20746865206C696E6B6564207088
:100BEE00686F746F2E205468657920617265206974
:100BFE0064656E74696669656420627920746865DF
:100C0E00206C657474657273204F4E20737572720A
:100C1E006F756E646564206279206120636972630A
:100C2E006C652C207369676E696679696E672074CE
:100C3E00686579206172652070726F647563747374
:100C4E00206F66204F4E2053656D69636F6E64751D
:100C5E0063746F722E596F752063616E20636865C1
:100C6E00636B20666F722061207472616E7369739C
:100C7E00746F72207479706520617320666F6C6C6E
:100C8E006F77733A4F6E6520616D706C696669653A
:100C9E007220746861742074686520324E35343168
:100CAE003620504E50207472616E736973746F7279
:100CBE007320746861742068652070757263686152
:100CCE007365642077657265204E504E2E204F6EF0
:100CDE006520616D706C69666965722074686174F7
:100CEE002074686520324E3534313620504E5020F7
:100CFE007472616E736973746F7273207468617449
:100D0E00206865207075726368617365642077650D
:080D1E007265204E504E0000EA
:00000001FF
